{
  "contractName": "UserRegistry",
  "abi": [
    {
      "anonymous": false,
      "inputs": [
        {
          "indexed": false,
          "internalType": "address",
          "name": "userAddress",
          "type": "address"
        },
        {
          "indexed": false,
          "internalType": "string",
          "name": "email",
          "type": "string"
        }
      ],
      "name": "UserRegistered",
      "type": "event"
    },
    {
      "constant": true,
      "inputs": [
        {
          "internalType": "address",
          "name": "",
          "type": "address"
        }
      ],
      "name": "users",
      "outputs": [
        {
          "internalType": "string",
          "name": "firstName",
          "type": "string"
        },
        {
          "internalType": "string",
          "name": "surname",
          "type": "string"
        },
        {
          "internalType": "string",
          "name": "email",
          "type": "string"
        },
        {
          "internalType": "bytes32",
          "name": "passwordHash",
          "type": "bytes32"
        }
      ],
      "payable": false,
      "stateMutability": "view",
      "type": "function"
    },
    {
      "constant": false,
      "inputs": [
        {
          "internalType": "string",
          "name": "_firstName",
          "type": "string"
        },
        {
          "internalType": "string",
          "name": "_surname",
          "type": "string"
        },
        {
          "internalType": "string",
          "name": "_email",
          "type": "string"
        },
        {
          "internalType": "bytes32",
          "name": "_passwordHash",
          "type": "bytes32"
        }
      ],
      "name": "registerUser",
      "outputs": [],
      "payable": false,
      "stateMutability": "nonpayable",
      "type": "function"
    },
    {
      "constant": true,
      "inputs": [
        {
          "internalType": "string",
          "name": "_email",
          "type": "string"
        },
        {
          "internalType": "bytes32",
          "name": "_passwordHash",
          "type": "bytes32"
        }
      ],
      "name": "loginUser",
      "outputs": [
        {
          "internalType": "bool",
          "name": "",
          "type": "bool"
        }
      ],
      "payable": false,
      "stateMutability": "view",
      "type": "function"
    },
    {
      "constant": true,
      "inputs": [
        {
          "internalType": "address",
          "name": "_userAddress",
          "type": "address"
        }
      ],
      "name": "getUser",
      "outputs": [
        {
          "internalType": "string",
          "name": "",
          "type": "string"
        },
        {
          "internalType": "string",
          "name": "",
          "type": "string"
        },
        {
          "internalType": "string",
          "name": "",
          "type": "string"
        }
      ],
      "payable": false,
      "stateMutability": "view",
      "type": "function"
    }
  ],
  "bytecode": "0x608060405234801561001057600080fd5b50610f66806100206000396000f3fe608060405234801561001057600080fd5b506004361061004c5760003560e01c8063380eeece146100515780636f77926b1461010b5780637ee9a81814610275578063a87430ba14610427575b600080fd5b6100f76004803603604081101561006757600080fd5b810190602081018135600160201b81111561008157600080fd5b82018360208201111561009357600080fd5b803590602001918460018302840111600160201b831117156100b457600080fd5b91908080601f0160208091040260200160405190810160405280939291908181526020018383808284376000920191909152509295505091359250610598915050565b604080519115158252519081900360200190f35b6101316004803603602081101561012157600080fd5b50356001600160a01b0316610880565b60405180806020018060200180602001848103845287818151815260200191508051906020019080838360005b8381101561017657818101518382015260200161015e565b50505050905090810190601f1680156101a35780820380516001836020036101000a031916815260200191505b50848103835286518152865160209182019188019080838360005b838110156101d65781810151838201526020016101be565b50505050905090810190601f1680156102035780820380516001836020036101000a031916815260200191505b50848103825285518152855160209182019187019080838360005b8381101561023657818101518382015260200161021e565b50505050905090810190601f1680156102635780820380516001836020036101000a031916815260200191505b50965050505050505060405180910390f35b6104256004803603608081101561028b57600080fd5b810190602081018135600160201b8111156102a557600080fd5b8201836020820111156102b757600080fd5b803590602001918460018302840111600160201b831117156102d857600080fd5b91908080601f0160208091040260200160405190810160405280939291908181526020018383808284376000920191909152509295949360208101935035915050600160201b81111561032a57600080fd5b82018360208201111561033c57600080fd5b803590602001918460018302840111600160201b8311171561035d57600080fd5b91908080601f0160208091040260200160405190810160405280939291908181526020018383808284376000920191909152509295949360208101935035915050600160201b8111156103af57600080fd5b8201836020820111156103c157600080fd5b803590602001918460018302840111600160201b831117156103e257600080fd5b91908080601f0160208091040260200160405190810160405280939291908181526020018383808284376000920191909152509295505091359250610ae1915050565b005b61044d6004803603602081101561043d57600080fd5b50356001600160a01b0316610c97565b60405180806020018060200180602001858152602001848103845288818151815260200191508051906020019080838360005b83811015610498578181015183820152602001610480565b50505050905090810190601f1680156104c55780820380516001836020036101000a031916815260200191505b50848103835287518152875160209182019189019080838360005b838110156104f85781810151838201526020016104e0565b50505050905090810190601f1680156105255780820380516001836020036101000a031916815260200191505b50848103825286518152865160209182019188019080838360005b83811015610558578181015183820152602001610540565b50505050905090810190601f1680156105855780820380516001836020036101000a031916815260200191505b5097505050505050505060405180910390f35b60006105a2610e6b565b33600090815260208181526040918290208251815460026001821615610100026000190190911604601f8101849004909302810160a09081019094526080810183815290939192849284919084018282801561063f5780601f106106145761010080835404028352916020019161063f565b820191906000526020600020905b81548152906001019060200180831161062257829003601f168201915b50505050508152602001600182018054600181600116156101000203166002900480601f0160208091040260200160405190810160405280929190818152602001828054600181600116156101000203166002900480156106e15780601f106106b6576101008083540402835291602001916106e1565b820191906000526020600020905b8154815290600101906020018083116106c457829003601f168201915b5050509183525050600282810180546040805160206001841615610100026000190190931694909404601f810183900483028501830190915280845293810193908301828280156107735780601f1061074857610100808354040283529160200191610773565b820191906000526020600020905b81548152906001019060200180831161075657829003601f168201915b505050505081526020016003820154815250509050836040516020018082805190602001908083835b602083106107bb5780518252601f19909201916020918201910161079c565b6001836020036101000a0380198251168184511680821785525050505050509050019150506040516020818303038152906040528051906020012081604001516040516020018082805190602001908083835b6020831061082d5780518252601f19909201916020918201910161080e565b6001836020036101000a038019825116818451168082178552505050505050905001915050604051602081830303815290604052805190602001201480156108785750828160600151145b949350505050565b606080606061088d610e6b565b6001600160a01b038516600090815260208181526040918290208251815460026001821615610100026000190190911604601f8101849004909302810160a0908101909452608081018381529093919284928491908401828280156109335780601f1061090857610100808354040283529160200191610933565b820191906000526020600020905b81548152906001019060200180831161091657829003601f168201915b50505050508152602001600182018054600181600116156101000203166002900480601f0160208091040260200160405190810160405280929190818152602001828054600181600116156101000203166002900480156109d55780601f106109aa576101008083540402835291602001916109d5565b820191906000526020600020905b8154815290600101906020018083116109b857829003601f168201915b5050509183525050600282810180546040805160206001841615610100026000190190931694909404601f81018390048302850183019091528084529381019390830182828015610a675780601f10610a3c57610100808354040283529160200191610a67565b820191906000526020600020905b815481529060010190602001808311610a4a57829003601f168201915b50505050508152602001600382015481525050905080604001515160001415610ac8576040805162461bcd60e51b815260206004820152600e60248201526d155cd95c881b9bdd08199bdd5b9960921b604482015290519081900360640190fd5b8051602082015160409092015190969195509350915050565b33600090815260208190526040902060029081015460001961010060018316150201160415610b57576040805162461bcd60e51b815260206004820152601760248201527f5573657220616c72656164792072656769737465726564000000000000000000604482015290519081900360640190fd5b60408051608081018252858152602080820186905281830185905260608201849052336000908152808252929092208151805192939192610b9b9284920190610e96565b506020828101518051610bb49260018501920190610e96565b5060408201518051610bd0916002840191602090910190610e96565b50606082015181600301559050507f48cac28ad4dc618e15f4c2dd5e97751182f166de97b25618318b2112aa951a2f338360405180836001600160a01b03166001600160a01b0316815260200180602001828103825283818151815260200191508051906020019080838360005b83811015610c56578181015183820152602001610c3e565b50505050905090810190601f168015610c835780820380516001836020036101000a031916815260200191505b50935050505060405180910390a150505050565b6000602081815291815260409081902080548251601f600260001961010060018616150201909316929092049182018590048502810185019093528083529092839190830182828015610d2b5780601f10610d0057610100808354040283529160200191610d2b565b820191906000526020600020905b815481529060010190602001808311610d0e57829003601f168201915b505050505090806001018054600181600116156101000203166002900480601f016020809104026020016040519081016040528092919081815260200182805460018160011615610100020316600290048015610dc95780601f10610d9e57610100808354040283529160200191610dc9565b820191906000526020600020905b815481529060010190602001808311610dac57829003601f168201915b50505060028085018054604080516020601f6000196101006001871615020190941695909504928301859004850281018501909152818152959695945090925090830182828015610e5b5780601f10610e3057610100808354040283529160200191610e5b565b820191906000526020600020905b815481529060010190602001808311610e3e57829003601f168201915b5050505050908060030154905084565b6040518060800160405280606081526020016060815260200160608152602001600080191681525090565b828054600181600116156101000203166002900490600052602060002090601f016020900481019282601f10610ed757805160ff1916838001178555610f04565b82800160010185558215610f04579182015b82811115610f04578251825591602001919060010190610ee9565b50610f10929150610f14565b5090565b610f2e91905b80821115610f105760008155600101610f1a565b9056fea265627a7a72315820a91fe1766334ba5aba23f5678f858a2c8498c903e4cb80006c7c01d7a10a0bf264736f6c63430005100032",
  "source": "pragma solidity ^0.5.16;\r\n\r\ncontract UserRegistry {\r\n    struct User {\r\n        string firstName;\r\n        string surname;\r\n        string email;\r\n        bytes32 passwordHash;\r\n    }\r\n\r\n    mapping(address => User) public users;\r\n\r\n    event UserRegistered(address userAddress, string email);\r\n\r\n    // Register a new user\r\n    function registerUser(\r\n        string memory _firstName, \r\n        string memory _surname, \r\n        string memory _email, \r\n        bytes32 _passwordHash\r\n    ) \r\n        public \r\n    {\r\n        require(bytes(users[msg.sender].email).length == 0, \"User already registered\");\r\n        \r\n        users[msg.sender] = User(_firstName, _surname, _email, _passwordHash);\r\n        emit UserRegistered(msg.sender, _email);\r\n    }\r\n\r\n    // Login user by checking email and password hash\r\n    function loginUser(string memory _email, bytes32 _passwordHash) public view returns (bool) {\r\n        User memory user = users[msg.sender];\r\n        return (\r\n            keccak256(abi.encodePacked(user.email)) == keccak256(abi.encodePacked(_email)) &&\r\n            user.passwordHash == _passwordHash\r\n        );\r\n    }\r\n\r\n    // Get user details by address\r\n    function getUser(address _userAddress) public view returns (string memory, string memory, string memory) {\r\n        User memory user = users[_userAddress];\r\n        require(bytes(user.email).length != 0, \"User not found\");\r\n        return (user.firstName, user.surname, user.email);\r\n    }\r\n}\r\n",
  "sourcePath": "C:\\Users\\Admin\\OneDrive - Sol Plaatje University\\Desktop\\Machine Learning\\Group-project\\gov-identity-Dweb-main\\contracts\\UserRegistry.sol",
  "compiler": {
    "name": "solc",
    "version": "0.5.16+commit.9c3226ce.Emscripten.clang"
  },
  "schemaVersion": "3.4.16",
  "updatedAt": "2024-09-24T09:15:26.121Z",
  "networkType": "ethereum",
  "devdoc": {
    "methods": {}
  },
  "userdoc": {
    "methods": {}
  }
}